:020000040800F2
:1000000020040020110A0008A7010008A901000827
:10001000AB010008AD010008AF01000800000000BE
:10002000000000000000000000000000B101000816
:10003000B301000800000000B5010008B701000886
:100040002D0A0008310A0008350A0008390A00089C
:100050003D0A0008410A0008450A0008490A00084C
:100060004D0A0008510A0008550A0008590A0008FC
:100070005D0A0008610A0008650A0008690A0008AC
:100080006D0A0008710A0008750A000800000000E7
:10009000000000000000000000000000790A0008D5
:1000A0007D0A0008810A0008850A0008890A0008FC
:1000B0008D0A0008910A0008950A0008990A0008AC
:1000C0009D0A0008A10A0008A50A0008A90A00085C
:1000D000AD0A0008B10A0008B50A0008B90A00080C
:1000E000BD0A0008C10A0008C50A00080000000097
:1000F0000000000000000000000000000000000000
:1001000000000000000000000000000000000000EF
:100110000000000000000000BD010008C90A00083E
:1001200010286E4B3ED8DFE800F0090C0F121518AE
:100130001B1E212426292C2F3235380001220621AE
:100140002DE001225B212AE001224F2127E001223C
:10015000772124E00122662121E001226D211EE0A9
:1001600001227D211BE001227C2118E001220721D0
:1001700015E0012212E001226F2110E00122392155
:100180000DE0012279210AE001223F2107E001224E
:10019000712104E001225E2101E000227F21184646
:1001A00000F073B970477047FEE7FEE7FEE7FEE731
:1001B00070477047704700F087B9000070B5484934
:1001C000484C494D6FF00100086010232371002254
:1001D000FF21424800F059F96679012240F60341B7
:1001E00000F089F801224FF4704100F084F8032EEA
:1001F00026D8DFE806F01C140B0200224FF4006141
:1002000000F079F800224FF4004117E000224FF48B
:10021000806100F070F800224FF480410EE000226F
:10022000022100F068F800224FF4005106E000229D
:10023000012100F060F800224FF4805100F05BF8DB
:100240006679700806EB90718908A6EB8102A05CC4
:10025000FFF766FFA07900282CD0102100F046F8A7
:1002600010B9B000207112E0202100F03FF8B60074
:1002700008B9761C0AE0402100F038F808B9B61C2D
:1002800004E0802100F032F808B9F61C26712079CC
:10029000102818D06178A278217062700022E1786D
:1002A000E070A1700020A07100F023F841F28830C6
:1002B000A06008E0A068401EA06004D10120A071E9
:1002C000012200F016F86079401C411000EB917299
:1002D0009210A0EB8200607170BD00000008014028
:1002E000101000400C000020000C0140284600F0D7
:1002F000C6B84FF48071284600F0C7B82DE9F8431E
:10030000024600200025634BDFF88C9101270E6820
:10031000AF403E40BE4240F0AC804C686CB3012C14
:1003200020D0022C23D0032C32D0112C1CD0122C24
:1003300020D0DFF868E174451CBFDFF864E1744544
:100340001BD0DFF860E174451CBFDFF85CE1744549
:1003500013D0DFF858E174451CBFDFF854E1744551
:100360000BD016E0C86814E0C868001D11E0C8682A
:1003700008300EE0C8680C300BE0886808B904202B
:1003800007E0012819BF082057610820176100E025
:100390000020B6F5807F03D294464FEA850E05E033
:1003A000A5F1080402F1040C4FEA840E0F27DCF8D3
:1003B000008007FA0EF428EA040400FA0EFE4EEA62
:1003C0000404CCF800404C68E40052D5D9F8004051
:1003D000DFF8E0E044F00104C9F800404FEA950C72
:1003E000D9F8004004F0010400944FEA8508009C0D
:1003F0005EF82C4008F00C0807FA08F724EA070713
:100400002D4CA24208BF00240ED02C4CA24208BFA3
:10041000012409D02A4CA24208BF022404D0294C4E
:10042000A2420CBF0324042404FA08F427434EF824
:100430002C70F7434C68E4031C684CBF34433C40C9
:100440001C604C68A4035C684CBF34433C405C6057
:100450004C68E4029C684CBF34433C409C604C6850
:10046000A40203D5DF683E43DE6002E0DE68374069
:10047000DF606D1C0F2D7FF649AFBDE8F18380680A
:10048000084018BF0120C0B2704702B909040161D9
:1004900070470000000401401810024000001110D5
:1004A0000000121000002110000022100000311086
:1004B000000032100800014000080140000C01401B
:1004C000001001400014014002494A68087882186F
:1004D0004A6070470000002080B500F0E7F800F0A7
:1004E0000EF800F070F800F03BF86048C16841F089
:1004F0000101C160026842F001020260FEE710B52E
:100500005B48016821F0F80141F080010160026858
:1005100042F00102026001688907FCD5426822F0BE
:10052000F0024260416821F4E0614160416821F4D9
:10053000605141604168890889004160416811F05B
:100540000C0FFBD14B4C204600F0BCF84A48016828
:1005500041F0040101602046BDE8104000F0BEB843
:1005600010B586B001A8142100F0C0F843484449F2
:10057000046844F010040460002300683B4C00F061
:100580001000009000980A683E483F4A03704FF4FC
:1005900080011160012300210291C822ADF80430CE
:1005A000039201A9204600F0A5F8206820F0800001
:1005B0002060616821F070016160A06820F0800017
:1005C000A06006B010BD30B585B06846102100F0BF
:1005D0008DF82E482E4D046844F020040460016814
:1005E0002C4C01F0200104910499026842F00402AD
:1005F0000260036803F0040304930499026842F064
:10060000080202600022006800F008000490FF2148
:1006100004982846FFF739FF00224FF60341204691
:10062000FFF733FFFF210091012201920021029187
:100630000222039269462846FFF760FE40F6034116
:100640000091012200F028F84FF47041009111222E
:1006500000F022F8F0200021009001910122029286
:1006600069462046FFF74AFE05B030BD0010004045
:100670000010024000127A0010E000E01C1002405E
:100680000CED00E036E400E004E100E01810024068
:1006900000080140000C0140019200210291032258
:1006A000039269462046FFF729BE000080B503206B
:1006B00000F07BF8002000F0C1F800F0DFF8002027
:1006C00002BD00004FF47A720649B0FBF2F0401E02
:1006D000486000238B60052008607047024908606D
:1006E0007047000010E000E018000020002200F039
:1006F000E7B80000F0B5DFF880E00368DFF88C4071
:10070000DFF88450DFF87C60DFF87470DFF86CC0CD
:10071000704518BFB0F1804F03D0604518BFB84294
:1007200009D14A6823F07003134370451CBFB0F130
:10073000804F604507D0B84218BFB04203D0A842EE
:1007400018BFA04203D1CA6823F440731343036067
:1007500070458A68C26218BFB0420A88826203D0BC
:10076000A84218BFA04201D1097C0163416941F050
:10077000010141610120F0BD002C01400004004056
:100780000008004000400140004401400048014092
:100790000901020006D5244A00F00F00104400F8B9
:1007A000041C7047214B19547047214B19684FF6B0
:1007B000FF020002114000F4E06008431D490843B5
:1007C0001860704738B51A4B1C68C4F30223C3F194
:1007D0000704052C28BF04241D1D072D34BF00234A
:1007E000DB1E012505FA04F4641E2140994005FA38
:1007F00003F35B1E1A401143BDE83440C8E710B54F
:10080000401EB0F1807F01D3012010BD0A4C606012
:100810000F214FF0FF30FFF7BBFF0021A160072041
:100820002060002010BD000018ED00E000E400E0B2
:100830000CED00E00000FA0510E000E038B50D4DC9
:100840000D4B2A7804464FF47A711868B1FBF2F226
:10085000B0FBF2F0FFF7D3FF50B9102C08D2002202
:1008600021464FF0FF30FFF7ADFFAC60002032BDF6
:10087000012032BD00000020180000200E4881B089
:10088000016841F001010160026802F0010200927A
:100890000099426842F080524260406800F0805007
:1008A000009000980548016821F0E06141F0007176
:1008B000016001B0704700BF181002400400014001
:1008C00000B500BF130096469446103928BFA0E833
:1008D0000C50FAD85FEA417C28BF0CC048BF40F8F2
:1008E000042BC90728BF20F8022B48BF00F8012BB2
:1008F00000BD000010B50F4A0F49106840F001001C
:10090000106053680D480B40536014680440146035
:10091000116821F4802111604FF41F01506820F408
:10092000FE00506091600020D0624FF00061044AE8
:10093000116010BD001002400000FFF8FFFFF6FE3E
:1009400008ED00E030B450F8041B79B10268436848
:1009500002440830DC0744BFA9F10104E31852F84F
:10096000045B43F8045B091FF9D1ECE730BC704726
:1009700010B5074979441831064C7C44163404E01C
:100980000A68081D114488470146A142F8D110BDEC
:100990000800000018000000ADFFFFFF1C00000071
:1009A00054000000000000200000000000F00DF8DE
:1009B000002801D0FFF7DCFFAFF300800020AFF389
:1009C0000080FFF789FD00F002F80120704700F079
:1009D00001B800000746384600F002F8FBE70000C7
:1009E00080B5AFF30080024A11001820ABBEFBE7D0
:1009F00026000200010000000000000010000000BE
:100A000010101010000001000000000000366E0100
:100A10000148804701480047F5080008210A0008FE
:100A2000AFF30080AFF30080FFF7C0FFFFF7FEBF1A
:100A3000FFF7FEBFFFF7FEBFFFF7FEBFFFF7FEBFEA
:100A4000FFF7FEBFFFF7FEBFFFF7FEBFFFF7FEBFDA
:100A5000FFF7FEBFFFF7FEBFFFF7FEBFFFF7FEBFCA
:100A6000FFF7FEBFFFF7FEBFFFF7FEBFFFF7FEBFBA
:100A7000FFF7FEBFFFF7FEBFFFF7FEBFFFF7FEBFAA
:100A8000FFF7FEBFFFF7FEBFFFF7FEBFFFF7FEBF9A
:100A9000FFF7FEBFFFF7FEBFFFF7FEBFFFF7FEBF8A
:100AA000FFF7FEBFFFF7FEBFFFF7FEBFFFF7FEBF7A
:100AB000FFF7FEBFFFF7FEBFFFF7FEBFFFF7FEBF6A
:0C0AC000FFF7FEBFFFF7FEBFFFF7FEBF11
:0400000508000A21C4
:00000001FF
